{
  "address": "0x67d269191c92Caf3cD7723F116c85e6E9bf55933",
  "abi": [
    {
      "inputs": [],
      "stateMutability": "nonpayable",
      "type": "constructor"
    },
    {
      "anonymous": false,
      "inputs": [
        {
          "indexed": true,
          "internalType": "bytes32",
          "name": "electionId",
          "type": "bytes32"
        }
      ],
      "name": "ElectionCreated",
      "type": "event"
    },
    {
      "inputs": [
        {
          "internalType": "bytes32",
          "name": "_electionId",
          "type": "bytes32"
        },
        {
          "internalType": "address",
          "name": "_candidate",
          "type": "address"
        }
      ],
      "name": "addCandidate",
      "outputs": [],
      "stateMutability": "nonpayable",
      "type": "function"
    },
    {
      "inputs": [
        {
          "internalType": "address",
          "name": "_voter",
          "type": "address"
        }
      ],
      "name": "addVoter",
      "outputs": [],
      "stateMutability": "nonpayable",
      "type": "function"
    },
    {
      "inputs": [],
      "name": "admin",
      "outputs": [
        {
          "internalType": "address",
          "name": "",
          "type": "address"
        }
      ],
      "stateMutability": "view",
      "type": "function"
    },
    {
      "inputs": [
        {
          "internalType": "string",
          "name": "_name",
          "type": "string"
        },
        {
          "internalType": "string",
          "name": "_state",
          "type": "string"
        },
        {
          "internalType": "address[]",
          "name": "_candidates",
          "type": "address[]"
        },
        {
          "internalType": "uint256",
          "name": "_startTime",
          "type": "uint256"
        },
        {
          "internalType": "uint256",
          "name": "_endTime",
          "type": "uint256"
        },
        {
          "internalType": "uint256",
          "name": "_year",
          "type": "uint256"
        },
        {
          "internalType": "enum AadhaarVoting.ElectionType",
          "name": "_type",
          "type": "uint8"
        }
      ],
      "name": "createElection",
      "outputs": [
        {
          "internalType": "bytes32",
          "name": "",
          "type": "bytes32"
        }
      ],
      "stateMutability": "nonpayable",
      "type": "function"
    },
    {
      "inputs": [
        {
          "internalType": "bytes32",
          "name": "",
          "type": "bytes32"
        }
      ],
      "name": "elections",
      "outputs": [
        {
          "internalType": "string",
          "name": "name",
          "type": "string"
        },
        {
          "internalType": "string",
          "name": "state",
          "type": "string"
        },
        {
          "internalType": "uint256",
          "name": "startTime",
          "type": "uint256"
        },
        {
          "internalType": "uint256",
          "name": "endTime",
          "type": "uint256"
        },
        {
          "internalType": "uint256",
          "name": "year",
          "type": "uint256"
        },
        {
          "internalType": "bool",
          "name": "isActive",
          "type": "bool"
        }
      ],
      "stateMutability": "view",
      "type": "function"
    },
    {
      "inputs": [
        {
          "internalType": "uint256",
          "name": "",
          "type": "uint256"
        }
      ],
      "name": "generalElectionIds",
      "outputs": [
        {
          "internalType": "bytes32",
          "name": "",
          "type": "bytes32"
        }
      ],
      "stateMutability": "view",
      "type": "function"
    },
    {
      "inputs": [
        {
          "internalType": "bytes32",
          "name": "_electionId",
          "type": "bytes32"
        }
      ],
      "name": "getAllVotes",
      "outputs": [
        {
          "internalType": "address[]",
          "name": "",
          "type": "address[]"
        },
        {
          "internalType": "uint256[]",
          "name": "",
          "type": "uint256[]"
        }
      ],
      "stateMutability": "view",
      "type": "function"
    },
    {
      "inputs": [
        {
          "internalType": "bytes32",
          "name": "_electionId",
          "type": "bytes32"
        },
        {
          "internalType": "address",
          "name": "_candidate",
          "type": "address"
        }
      ],
      "name": "getCandidateVotes",
      "outputs": [
        {
          "internalType": "uint256",
          "name": "",
          "type": "uint256"
        }
      ],
      "stateMutability": "view",
      "type": "function"
    },
    {
      "inputs": [
        {
          "internalType": "bytes32",
          "name": "_electionId",
          "type": "bytes32"
        }
      ],
      "name": "getElectionCandidates",
      "outputs": [
        {
          "internalType": "address[]",
          "name": "",
          "type": "address[]"
        }
      ],
      "stateMutability": "view",
      "type": "function"
    },
    {
      "inputs": [
        {
          "internalType": "bytes32",
          "name": "_electionId",
          "type": "bytes32"
        }
      ],
      "name": "getElectionWinner",
      "outputs": [
        {
          "internalType": "address",
          "name": "winner",
          "type": "address"
        },
        {
          "internalType": "uint256",
          "name": "highestVotes",
          "type": "uint256"
        }
      ],
      "stateMutability": "view",
      "type": "function"
    },
    {
      "inputs": [
        {
          "internalType": "bytes32",
          "name": "_electionId",
          "type": "bytes32"
        }
      ],
      "name": "getElectionWinners",
      "outputs": [
        {
          "internalType": "address[]",
          "name": "",
          "type": "address[]"
        },
        {
          "internalType": "uint256",
          "name": "",
          "type": "uint256"
        }
      ],
      "stateMutability": "view",
      "type": "function"
    },
    {
      "inputs": [],
      "name": "getGeneralElectionDetails",
      "outputs": [
        {
          "components": [
            {
              "internalType": "bytes32",
              "name": "electionId",
              "type": "bytes32"
            },
            {
              "internalType": "string",
              "name": "name",
              "type": "string"
            },
            {
              "internalType": "string",
              "name": "state",
              "type": "string"
            },
            {
              "internalType": "uint256",
              "name": "startTime",
              "type": "uint256"
            },
            {
              "internalType": "uint256",
              "name": "endTime",
              "type": "uint256"
            },
            {
              "internalType": "uint256",
              "name": "year",
              "type": "uint256"
            },
            {
              "internalType": "bool",
              "name": "isActive",
              "type": "bool"
            },
            {
              "internalType": "address[]",
              "name": "candidates",
              "type": "address[]"
            }
          ],
          "internalType": "struct AadhaarVoting.ElectionDetails[]",
          "name": "",
          "type": "tuple[]"
        }
      ],
      "stateMutability": "view",
      "type": "function"
    },
    {
      "inputs": [],
      "name": "getGeneralElectionIds",
      "outputs": [
        {
          "internalType": "bytes32[]",
          "name": "",
          "type": "bytes32[]"
        }
      ],
      "stateMutability": "view",
      "type": "function"
    },
    {
      "inputs": [],
      "name": "getStateElectionDetails",
      "outputs": [
        {
          "components": [
            {
              "internalType": "bytes32",
              "name": "electionId",
              "type": "bytes32"
            },
            {
              "internalType": "string",
              "name": "name",
              "type": "string"
            },
            {
              "internalType": "string",
              "name": "state",
              "type": "string"
            },
            {
              "internalType": "uint256",
              "name": "startTime",
              "type": "uint256"
            },
            {
              "internalType": "uint256",
              "name": "endTime",
              "type": "uint256"
            },
            {
              "internalType": "uint256",
              "name": "year",
              "type": "uint256"
            },
            {
              "internalType": "bool",
              "name": "isActive",
              "type": "bool"
            },
            {
              "internalType": "address[]",
              "name": "candidates",
              "type": "address[]"
            }
          ],
          "internalType": "struct AadhaarVoting.ElectionDetails[]",
          "name": "",
          "type": "tuple[]"
        }
      ],
      "stateMutability": "view",
      "type": "function"
    },
    {
      "inputs": [],
      "name": "getStateElectionIds",
      "outputs": [
        {
          "internalType": "bytes32[]",
          "name": "",
          "type": "bytes32[]"
        }
      ],
      "stateMutability": "view",
      "type": "function"
    },
    {
      "inputs": [
        {
          "internalType": "address",
          "name": "_voter",
          "type": "address"
        }
      ],
      "name": "isEligible",
      "outputs": [
        {
          "internalType": "bool",
          "name": "",
          "type": "bool"
        }
      ],
      "stateMutability": "view",
      "type": "function"
    },
    {
      "inputs": [
        {
          "internalType": "uint256",
          "name": "",
          "type": "uint256"
        }
      ],
      "name": "stateElectionIds",
      "outputs": [
        {
          "internalType": "bytes32",
          "name": "",
          "type": "bytes32"
        }
      ],
      "stateMutability": "view",
      "type": "function"
    },
    {
      "inputs": [
        {
          "internalType": "bytes32",
          "name": "_electionId",
          "type": "bytes32"
        },
        {
          "internalType": "address",
          "name": "_voter",
          "type": "address"
        }
      ],
      "name": "userHasVoted",
      "outputs": [
        {
          "internalType": "bool",
          "name": "",
          "type": "bool"
        }
      ],
      "stateMutability": "view",
      "type": "function"
    },
    {
      "inputs": [
        {
          "internalType": "bytes32",
          "name": "_electionId",
          "type": "bytes32"
        },
        {
          "internalType": "address",
          "name": "_candidate",
          "type": "address"
        }
      ],
      "name": "voteElection",
      "outputs": [],
      "stateMutability": "nonpayable",
      "type": "function"
    },
    {
      "inputs": [
        {
          "internalType": "address",
          "name": "",
          "type": "address"
        }
      ],
      "name": "voters",
      "outputs": [
        {
          "internalType": "bool",
          "name": "",
          "type": "bool"
        }
      ],
      "stateMutability": "view",
      "type": "function"
    }
  ],
  "transactionHash": "0x6b02091ecb131adde015ae576433943d9968e3c4a2ef144f06a858602cd52afe",
  "args": [],
  "numDeployments": 4,
  "solcInputHash": "7bf56297ee44062e419b8572c88dbfe7",
  "bytecode": "0x608060405234801561001057600080fd5b50336000806101000a81548173ffffffffffffffffffffffffffffffffffffffff021916908373ffffffffffffffffffffffffffffffffffffffff1602179055506130d7806100606000396000f3fe608060405234801561001057600080fd5b506004361061012c5760003560e01c806388d2f2a2116100ad578063c7d8059511610071578063c7d80595146103ad578063c9c6eea7146103dd578063d2f3874a146103f9578063f4ab9adf14610429578063f851a440146104455761012c565b806388d2f2a2146102e05780639e22156714610310578063a3ec138d1461032e578063a75b0c4a1461035e578063b1f917691461037c5761012c565b80634d583688116100f45780634d5836881461022857806352987a0f14610246578063542377ba1461026457806366e305fd146102945780637c5d9165146102c45761012c565b80630165b82a1461013157806305ab39b71461016157806317ffd7aa1461019657806324af33ce146101c657806346ab82a6146101f7575b600080fd5b61014b60048036038101906101469190611c61565b610463565b6040516101589190611ca7565b60405180910390f35b61017b60048036038101906101769190611cee565b610487565b60405161018d96959493929190611dd5565b60405180910390f35b6101b060048036038101906101ab9190611ea2565b6105e0565b6040516101bd9190611ee2565b60405180910390f35b6101e060048036038101906101db9190611cee565b61063e565b6040516101ee929190611fbb565b60405180910390f35b610211600480360381019061020c9190611cee565b610950565b60405161021f929190611ffa565b60405180910390f35b610230610a8a565b60405161023d91906120e1565b60405180910390f35b61024e610ae2565b60405161025b91906120e1565b60405180910390f35b61027e60048036038101906102799190611cee565b610b3a565b60405161028b9190612103565b60405180910390f35b6102ae60048036038101906102a99190612125565b610bde565b6040516102bb9190612152565b60405180910390f35b6102de60048036038101906102d99190611ea2565b610c34565b005b6102fa60048036038101906102f5919061238f565b610e7d565b6040516103079190611ca7565b60405180910390f35b610318611193565b60405161032591906126dc565b60405180910390f35b61034860048036038101906103439190612125565b6111a4565b6040516103559190612152565b60405180910390f35b6103666111c4565b60405161037391906126dc565b60405180910390f35b61039660048036038101906103919190611cee565b6111d5565b6040516103a49291906127ad565b60405180910390f35b6103c760048036038101906103c29190611ea2565b6113f2565b6040516103d49190612152565b60405180910390f35b6103f760048036038101906103f29190611ea2565b61145d565b005b610413600480360381019061040e9190611c61565b611784565b6040516104209190611ca7565b60405180910390f35b610443600480360381019061043e9190612125565b6117a8565b005b61044d611890565b60405161045a91906127e4565b60405180910390f35b6003818154811061047357600080fd5b906000526020600020016000915090505481565b60026020528060005260406000206000915090508060000180546104aa9061282e565b80601f01602080910402602001604051908101604052809291908181526020018280546104d69061282e565b80156105235780601f106104f857610100808354040283529160200191610523565b820191906000526020600020905b81548152906001019060200180831161050657829003601f168201915b5050505050908060010180546105389061282e565b80601f01602080910402602001604051908101604052809291908181526020018280546105649061282e565b80156105b15780601f10610586576101008083540402835291602001916105b1565b820191906000526020600020905b81548152906001019060200180831161059457829003601f168201915b5050505050908060020154908060030154908060040154908060050160009054906101000a900460ff16905086565b60006002600084815260200190815260200160002060070160008373ffffffffffffffffffffffffffffffffffffffff1673ffffffffffffffffffffffffffffffffffffffff16815260200190815260200160002054905092915050565b6060600080600260008581526020019081526020016000209050600081600601805490509050600081116106a7576040517f08c379a000000000000000000000000000000000000000000000000000000000815260040161069e906128ab565b60405180910390fd5b60008167ffffffffffffffff8111156106c3576106c2612177565b5b6040519080825280602002602001820160405280156106f15781602001602082028036833780820191505090505b50905060008060005b8481101561086a57600086600601828154811061071a576107196128cb565b5b9060005260206000200160009054906101000a900473ffffffffffffffffffffffffffffffffffffffff16905060008760070160008373ffffffffffffffffffffffffffffffffffffffff1673ffffffffffffffffffffffffffffffffffffffff168152602001908152602001600020549050848111156107f0578094506001935081866000815181106107b1576107b06128cb565b5b602002602001019073ffffffffffffffffffffffffffffffffffffffff16908173ffffffffffffffffffffffffffffffffffffffff1681525050610855565b848103610854578186858151811061080b5761080a6128cb565b5b602002602001019073ffffffffffffffffffffffffffffffffffffffff16908173ffffffffffffffffffffffffffffffffffffffff1681525050838061085090612929565b9450505b5b5050808061086290612929565b9150506106fa565b5060008167ffffffffffffffff81111561088757610886612177565b5b6040519080825280602002602001820160405280156108b55781602001602082028036833780820191505090505b50905060005b8281101561093e578481815181106108d6576108d56128cb565b5b60200260200101518282815181106108f1576108f06128cb565b5b602002602001019073ffffffffffffffffffffffffffffffffffffffff16908173ffffffffffffffffffffffffffffffffffffffff1681525050808061093690612929565b9150506108bb565b50808397509750505050505050915091565b600080600060026000858152602001908152602001600020905060008160060180549050116109b4576040517f08c379a00000000000000000000000000000000000000000000000000000000081526004016109ab906128ab565b60405180910390fd5b60008080600090505b8360060180549050811015610a7b5760008460060182815481106109e4576109e36128cb565b5b9060005260206000200160009054906101000a900473ffffffffffffffffffffffffffffffffffffffff16905060008560070160008373ffffffffffffffffffffffffffffffffffffffff1673ffffffffffffffffffffffffffffffffffffffff16815260200190815260200160002054905084811115610a66578094508193505b50508080610a7390612929565b9150506109bd565b50808294509450505050915091565b60606004805480602002602001604051908101604052809291908181526020018280548015610ad857602002820191906000526020600020905b815481526020019060010190808311610ac4575b5050505050905090565b60606003805480602002602001604051908101604052809291908181526020018280548015610b3057602002820191906000526020600020905b815481526020019060010190808311610b1c575b5050505050905090565b606060026000838152602001908152602001600020600601805480602002602001604051908101604052809291908181526020018280548015610bd257602002820191906000526020600020905b8160009054906101000a900473ffffffffffffffffffffffffffffffffffffffff1673ffffffffffffffffffffffffffffffffffffffff1681526020019060010190808311610b88575b50505050509050919050565b6000600160008373ffffffffffffffffffffffffffffffffffffffff1673ffffffffffffffffffffffffffffffffffffffff16815260200190815260200160002060009054906101000a900460ff169050919050565b60008054906101000a900473ffffffffffffffffffffffffffffffffffffffff1673ffffffffffffffffffffffffffffffffffffffff163373ffffffffffffffffffffffffffffffffffffffff1614610cc2576040517f08c379a0000000000000000000000000000000000000000000000000000000008152600401610cb9906129bd565b60405180910390fd5b60006002600084815260200190815260200160002090508060050160009054906101000a900460ff16610d2a576040517f08c379a0000000000000000000000000000000000000000000000000000000008152600401610d2190612a29565b60405180910390fd5b8060090160008373ffffffffffffffffffffffffffffffffffffffff1673ffffffffffffffffffffffffffffffffffffffff16815260200190815260200160002060009054906101000a900460ff1615610db9576040517f08c379a0000000000000000000000000000000000000000000000000000000008152600401610db090612a95565b60405180910390fd5b80600601829080600181540180825580915050600190039060005260206000200160009091909190916101000a81548173ffffffffffffffffffffffffffffffffffffffff021916908373ffffffffffffffffffffffffffffffffffffffff16021790555060018160090160008473ffffffffffffffffffffffffffffffffffffffff1673ffffffffffffffffffffffffffffffffffffffff16815260200190815260200160002060006101000a81548160ff021916908315150217905550505050565b60008060009054906101000a900473ffffffffffffffffffffffffffffffffffffffff1673ffffffffffffffffffffffffffffffffffffffff163373ffffffffffffffffffffffffffffffffffffffff1614610f0e576040517f08c379a0000000000000000000000000000000000000000000000000000000008152600401610f05906129bd565b60405180910390fd5b838510610f50576040517f08c379a0000000000000000000000000000000000000000000000000000000008152600401610f4790612b01565b60405180910390fd5b6000610f5e89848a876118b4565b9050600060026000838152602001908152602001600020905089816000019081610f889190612ccd565b5088816001019081610f9a9190612ccd565b5086816002018190555085816003018190555084816004018190555060018160050160006101000a81548160ff02191690831515021790555060005b88518110156110d1576000898281518110610ff457610ff36128cb565b5b6020026020010151905082600601819080600181540180825580915050600190039060005260206000200160009091909190916101000a81548173ffffffffffffffffffffffffffffffffffffffff021916908373ffffffffffffffffffffffffffffffffffffffff16021790555060018360090160008373ffffffffffffffffffffffffffffffffffffffff1673ffffffffffffffffffffffffffffffffffffffff16815260200190815260200160002060006101000a81548160ff0219169083151502179055505080806110c990612929565b915050610fd6565b50600060018111156110e6576110e5612d9f565b5b8460018111156110f9576110f8612d9f565b5b0361112c576003829080600181540180825580915050600190039060005260206000200160009091909190915055611156565b60048290806001815401808255809150506001900390600052602060002001600090919091909150555b817fe842e8696f10c8e297c8e47fc66f8288f5ba919afc772e4042c2e78a305ab07660405160405180910390a28192505050979650505050505050565b606061119f60046118ef565b905090565b60016020528060005260406000206000915054906101000a900460ff1681565b60606111d060036118ef565b905090565b606080600060026000858152602001908152602001600020905060008160060180549050905060008167ffffffffffffffff81111561121757611216612177565b5b6040519080825280602002602001820160405280156112455781602001602082028036833780820191505090505b50905060008267ffffffffffffffff81111561126457611263612177565b5b6040519080825280602002602001820160405280156112925781602001602082028036833780820191505090505b50905060005b838110156113e2578460060181815481106112b6576112b56128cb565b5b9060005260206000200160009054906101000a900473ffffffffffffffffffffffffffffffffffffffff168382815181106112f4576112f36128cb565b5b602002602001019073ffffffffffffffffffffffffffffffffffffffff16908173ffffffffffffffffffffffffffffffffffffffff168152505084600701600086600601838154811061134a576113496128cb565b5b9060005260206000200160009054906101000a900473ffffffffffffffffffffffffffffffffffffffff1673ffffffffffffffffffffffffffffffffffffffff1673ffffffffffffffffffffffffffffffffffffffff168152602001908152602001600020548282815181106113c3576113c26128cb565b5b60200260200101818152505080806113da90612929565b915050611298565b5081819550955050505050915091565b60006002600084815260200190815260200160002060080160008373ffffffffffffffffffffffffffffffffffffffff1673ffffffffffffffffffffffffffffffffffffffff16815260200190815260200160002060009054906101000a900460ff16905092915050565b600160003373ffffffffffffffffffffffffffffffffffffffff1673ffffffffffffffffffffffffffffffffffffffff16815260200190815260200160002060009054906101000a900460ff166114e9576040517f08c379a00000000000000000000000000000000000000000000000000000000081526004016114e090612e1a565b60405180910390fd5b60006002600084815260200190815260200160002090508060050160009054906101000a900460ff16611551576040517f08c379a000000000000000000000000000000000000000000000000000000000815260040161154890612a29565b60405180910390fd5b80600201544210158015611569575080600301544211155b6115a8576040517f08c379a000000000000000000000000000000000000000000000000000000000815260040161159f90612e86565b60405180910390fd5b600081600801905060008260090190508160003373ffffffffffffffffffffffffffffffffffffffff1673ffffffffffffffffffffffffffffffffffffffff16815260200190815260200160002060009054906101000a900460ff1615611644576040517f08c379a000000000000000000000000000000000000000000000000000000000815260040161163b90612ef2565b60405180910390fd5b8060008573ffffffffffffffffffffffffffffffffffffffff1673ffffffffffffffffffffffffffffffffffffffff16815260200190815260200160002060009054906101000a900460ff166116cf576040517f08c379a00000000000000000000000000000000000000000000000000000000081526004016116c690612f5e565b60405180910390fd5b60018260003373ffffffffffffffffffffffffffffffffffffffff1673ffffffffffffffffffffffffffffffffffffffff16815260200190815260200160002060006101000a81548160ff0219169083151502179055508260070160008573ffffffffffffffffffffffffffffffffffffffff1673ffffffffffffffffffffffffffffffffffffffff168152602001908152602001600020600081548092919061177890612929565b91905055505050505050565b6004818154811061179457600080fd5b906000526020600020016000915090505481565b60008054906101000a900473ffffffffffffffffffffffffffffffffffffffff1673ffffffffffffffffffffffffffffffffffffffff163373ffffffffffffffffffffffffffffffffffffffff1614611836576040517f08c379a000000000000000000000000000000000000000000000000000000000815260040161182d906129bd565b60405180910390fd5b60018060008373ffffffffffffffffffffffffffffffffffffffff1673ffffffffffffffffffffffffffffffffffffffff16815260200190815260200160002060006101000a81548160ff02191690831515021790555050565b60008054906101000a900473ffffffffffffffffffffffffffffffffffffffff1681565b600084848484426040516020016118cf95949392919061304a565b604051602081830303815290604052805190602001209050949350505050565b606060008280549050905060008167ffffffffffffffff81111561191657611915612177565b5b60405190808252806020026020018201604052801561194f57816020015b61193c611bcd565b8152602001906001900390816119345790505b50905060005b82811015611bc2576000858281548110611972576119716128cb565b5b9060005260206000200154905060006002600083815260200190815260200160002090506040518061010001604052808381526020018260000180546119b79061282e565b80601f01602080910402602001604051908101604052809291908181526020018280546119e39061282e565b8015611a305780601f10611a0557610100808354040283529160200191611a30565b820191906000526020600020905b815481529060010190602001808311611a1357829003601f168201915b50505050508152602001826001018054611a499061282e565b80601f0160208091040260200160405190810160405280929190818152602001828054611a759061282e565b8015611ac25780601f10611a9757610100808354040283529160200191611ac2565b820191906000526020600020905b815481529060010190602001808311611aa557829003601f168201915b505050505081526020018260020154815260200182600301548152602001826004015481526020018260050160009054906101000a900460ff161515815260200182600601805480602002602001604051908101604052809291908181526020018280548015611b8757602002820191906000526020600020905b8160009054906101000a900473ffffffffffffffffffffffffffffffffffffffff1673ffffffffffffffffffffffffffffffffffffffff1681526020019060010190808311611b3d575b5050505050815250848481518110611ba257611ba16128cb565b5b602002602001018190525050508080611bba90612929565b915050611955565b508092505050919050565b604051806101000160405280600080191681526020016060815260200160608152602001600081526020016000815260200160008152602001600015158152602001606081525090565b6000604051905090565b600080fd5b600080fd5b6000819050919050565b611c3e81611c2b565b8114611c4957600080fd5b50565b600081359050611c5b81611c35565b92915050565b600060208284031215611c7757611c76611c21565b5b6000611c8584828501611c4c565b91505092915050565b6000819050919050565b611ca181611c8e565b82525050565b6000602082019050611cbc6000830184611c98565b92915050565b611ccb81611c8e565b8114611cd657600080fd5b50565b600081359050611ce881611cc2565b92915050565b600060208284031215611d0457611d03611c21565b5b6000611d1284828501611cd9565b91505092915050565b600081519050919050565b600082825260208201905092915050565b60005b83811015611d55578082015181840152602081019050611d3a565b60008484015250505050565b6000601f19601f8301169050919050565b6000611d7d82611d1b565b611d878185611d26565b9350611d97818560208601611d37565b611da081611d61565b840191505092915050565b611db481611c2b565b82525050565b60008115159050919050565b611dcf81611dba565b82525050565b600060c0820190508181036000830152611def8189611d72565b90508181036020830152611e038188611d72565b9050611e126040830187611dab565b611e1f6060830186611dab565b611e2c6080830185611dab565b611e3960a0830184611dc6565b979650505050505050565b600073ffffffffffffffffffffffffffffffffffffffff82169050919050565b6000611e6f82611e44565b9050919050565b611e7f81611e64565b8114611e8a57600080fd5b50565b600081359050611e9c81611e76565b92915050565b60008060408385031215611eb957611eb8611c21565b5b6000611ec785828601611cd9565b9250506020611ed885828601611e8d565b9150509250929050565b6000602082019050611ef76000830184611dab565b92915050565b600081519050919050565b600082825260208201905092915050565b6000819050602082019050919050565b611f3281611e64565b82525050565b6000611f448383611f29565b60208301905092915050565b6000602082019050919050565b6000611f6882611efd565b611f728185611f08565b9350611f7d83611f19565b8060005b83811015611fae578151611f958882611f38565b9750611fa083611f50565b925050600181019050611f81565b5085935050505092915050565b60006040820190508181036000830152611fd58185611f5d565b9050611fe46020830184611dab565b9392505050565b611ff481611e64565b82525050565b600060408201905061200f6000830185611feb565b61201c6020830184611dab565b9392505050565b600081519050919050565b600082825260208201905092915050565b6000819050602082019050919050565b61205881611c8e565b82525050565b600061206a838361204f565b60208301905092915050565b6000602082019050919050565b600061208e82612023565b612098818561202e565b93506120a38361203f565b8060005b838110156120d45781516120bb888261205e565b97506120c683612076565b9250506001810190506120a7565b5085935050505092915050565b600060208201905081810360008301526120fb8184612083565b905092915050565b6000602082019050818103600083015261211d8184611f5d565b905092915050565b60006020828403121561213b5761213a611c21565b5b600061214984828501611e8d565b91505092915050565b60006020820190506121676000830184611dc6565b92915050565b600080fd5b600080fd5b7f4e487b7100000000000000000000000000000000000000000000000000000000600052604160045260246000fd5b6121af82611d61565b810181811067ffffffffffffffff821117156121ce576121cd612177565b5b80604052505050565b60006121e1611c17565b90506121ed82826121a6565b919050565b600067ffffffffffffffff82111561220d5761220c612177565b5b61221682611d61565b9050602081019050919050565b82818337600083830152505050565b6000612245612240846121f2565b6121d7565b90508281526020810184848401111561226157612260612172565b5b61226c848285612223565b509392505050565b600082601f8301126122895761228861216d565b5b8135612299848260208601612232565b91505092915050565b600067ffffffffffffffff8211156122bd576122bc612177565b5b602082029050602081019050919050565b600080fd5b60006122e66122e1846122a2565b6121d7565b90508083825260208201905060208402830185811115612309576123086122ce565b5b835b81811015612332578061231e8882611e8d565b84526020840193505060208101905061230b565b5050509392505050565b600082601f8301126123515761235061216d565b5b81356123618482602086016122d3565b91505092915050565b6002811061237757600080fd5b50565b6000813590506123898161236a565b92915050565b600080600080600080600060e0888a0312156123ae576123ad611c21565b5b600088013567ffffffffffffffff8111156123cc576123cb611c26565b5b6123d88a828b01612274565b975050602088013567ffffffffffffffff8111156123f9576123f8611c26565b5b6124058a828b01612274565b965050604088013567ffffffffffffffff81111561242657612425611c26565b5b6124328a828b0161233c565b95505060606124438a828b01611c4c565b94505060806124548a828b01611c4c565b93505060a06124658a828b01611c4c565b92505060c06124768a828b0161237a565b91505092959891949750929550565b600081519050919050565b600082825260208201905092915050565b6000819050602082019050919050565b600082825260208201905092915050565b60006124cd82611d1b565b6124d781856124b1565b93506124e7818560208601611d37565b6124f081611d61565b840191505092915050565b61250481611c2b565b82525050565b61251381611dba565b82525050565b600082825260208201905092915050565b600061253582611efd565b61253f8185612519565b935061254a83611f19565b8060005b8381101561257b5781516125628882611f38565b975061256d83611f50565b92505060018101905061254e565b5085935050505092915050565b6000610100830160008301516125a1600086018261204f565b50602083015184820360208601526125b982826124c2565b915050604083015184820360408601526125d382826124c2565b91505060608301516125e860608601826124fb565b5060808301516125fb60808601826124fb565b5060a083015161260e60a08601826124fb565b5060c083015161262160c086018261250a565b5060e083015184820360e0860152612639828261252a565b9150508091505092915050565b60006126528383612588565b905092915050565b6000602082019050919050565b600061267282612485565b61267c8185612490565b93508360208202850161268e856124a1565b8060005b858110156126ca57848403895281516126ab8582612646565b94506126b68361265a565b925060208a01995050600181019050612692565b50829750879550505050505092915050565b600060208201905081810360008301526126f68184612667565b905092915050565b600081519050919050565b600082825260208201905092915050565b6000819050602082019050919050565b600061273683836124fb565b60208301905092915050565b6000602082019050919050565b600061275a826126fe565b6127648185612709565b935061276f8361271a565b8060005b838110156127a0578151612787888261272a565b975061279283612742565b925050600181019050612773565b5085935050505092915050565b600060408201905081810360008301526127c78185611f5d565b905081810360208301526127db818461274f565b90509392505050565b60006020820190506127f96000830184611feb565b92915050565b7f4e487b7100000000000000000000000000000000000000000000000000000000600052602260045260246000fd5b6000600282049050600182168061284657607f821691505b602082108103612859576128586127ff565b5b50919050565b7f4e6f2063616e6469646174657320666f756e6400000000000000000000000000600082015250565b6000612895601383611d26565b91506128a08261285f565b602082019050919050565b600060208201905081810360008301526128c481612888565b9050919050565b7f4e487b7100000000000000000000000000000000000000000000000000000000600052603260045260246000fd5b7f4e487b7100000000000000000000000000000000000000000000000000000000600052601160045260246000fd5b600061293482611c2b565b91507fffffffffffffffffffffffffffffffffffffffffffffffffffffffffffffffff8203612966576129656128fa565b5b600182019050919050565b7f4f6e6c792061646d696e2063616e20706572666f726d20746869730000000000600082015250565b60006129a7601b83611d26565b91506129b282612971565b602082019050919050565b600060208201905081810360008301526129d68161299a565b9050919050565b7f456c656374696f6e206e6f742061637469766500000000000000000000000000600082015250565b6000612a13601383611d26565b9150612a1e826129dd565b602082019050919050565b60006020820190508181036000830152612a4281612a06565b9050919050565b7f43616e64696461746520616c7265616479206164646564000000000000000000600082015250565b6000612a7f601783611d26565b9150612a8a82612a49565b602082019050919050565b60006020820190508181036000830152612aae81612a72565b9050919050565b7f496e76616c696420656c656374696f6e2074696d650000000000000000000000600082015250565b6000612aeb601583611d26565b9150612af682612ab5565b602082019050919050565b60006020820190508181036000830152612b1a81612ade565b9050919050565b60008190508160005260206000209050919050565b60006020601f8301049050919050565b600082821b905092915050565b600060088302612b837fffffffffffffffffffffffffffffffffffffffffffffffffffffffffffffffff82612b46565b612b8d8683612b46565b95508019841693508086168417925050509392505050565b6000819050919050565b6000612bca612bc5612bc084611c2b565b612ba5565b611c2b565b9050919050565b6000819050919050565b612be483612baf565b612bf8612bf082612bd1565b848454612b53565b825550505050565b600090565b612c0d612c00565b612c18818484612bdb565b505050565b5b81811015612c3c57612c31600082612c05565b600181019050612c1e565b5050565b601f821115612c8157612c5281612b21565b612c5b84612b36565b81016020851015612c6a578190505b612c7e612c7685612b36565b830182612c1d565b50505b505050565b600082821c905092915050565b6000612ca460001984600802612c86565b1980831691505092915050565b6000612cbd8383612c93565b9150826002028217905092915050565b612cd682611d1b565b67ffffffffffffffff811115612cef57612cee612177565b5b612cf9825461282e565b612d04828285612c40565b600060209050601f831160018114612d375760008415612d25578287015190505b612d2f8582612cb1565b865550612d97565b601f198416612d4586612b21565b60005b82811015612d6d57848901518255600182019150602085019450602081019050612d48565b86831015612d8a5784890151612d86601f891682612c93565b8355505b6001600288020188555050505b505050505050565b7f4e487b7100000000000000000000000000000000000000000000000000000000600052602160045260246000fd5b7f4e6f7420656c696769626c650000000000000000000000000000000000000000600082015250565b6000612e04600c83611d26565b9150612e0f82612dce565b602082019050919050565b60006020820190508181036000830152612e3381612df7565b9050919050565b7f456c656374696f6e206e6f742072756e6e696e67000000000000000000000000600082015250565b6000612e70601483611d26565b9150612e7b82612e3a565b602082019050919050565b60006020820190508181036000830152612e9f81612e63565b9050919050565b7f416c726561647920766f74656400000000000000000000000000000000000000600082015250565b6000612edc600d83611d26565b9150612ee782612ea6565b602082019050919050565b60006020820190508181036000830152612f0b81612ecf565b9050919050565b7f496e76616c69642063616e646964617465000000000000000000000000000000600082015250565b6000612f48601183611d26565b9150612f5382612f12565b602082019050919050565b60006020820190508181036000830152612f7781612f3b565b9050919050565b600081905092915050565b6000612f9482611d1b565b612f9e8185612f7e565b9350612fae818560208601611d37565b80840191505092915050565b60028110612fcb57612fca612d9f565b5b50565b6000819050612fdc82612fba565b919050565b6000612fec82612fce565b9050919050565b60008160f81b9050919050565b600061300b82612ff3565b9050919050565b61302361301e82612fe1565b613000565b82525050565b6000819050919050565b61304461303f82611c2b565b613029565b82525050565b60006130568288612f89565b91506130628287613012565b6001820191506130728286612f89565b915061307e8285613033565b60208201915061308e8284613033565b602082019150819050969550505050505056fea26469706673582212208dbe0fd7b65a2b49e389a67dbdea99e3221975466f0ce7dc4fae4e255b7f1f0064736f6c63430008130033",
  "devdoc": {
    "kind": "dev",
    "methods": {},
    "version": 1
  },
  "userdoc": {
    "kind": "user",
    "methods": {},
    "version": 1
  },
  "storageLayout": {
    "storage": [
      {
        "astId": 3,
        "contract": "contracts/AadhaarVoting.sol:AadhaarVoting",
        "label": "admin",
        "offset": 0,
        "slot": "0",
        "type": "t_address"
      },
      {
        "astId": 77,
        "contract": "contracts/AadhaarVoting.sol:AadhaarVoting",
        "label": "voters",
        "offset": 0,
        "slot": "1",
        "type": "t_mapping(t_address,t_bool)"
      },
      {
        "astId": 82,
        "contract": "contracts/AadhaarVoting.sol:AadhaarVoting",
        "label": "elections",
        "offset": 0,
        "slot": "2",
        "type": "t_mapping(t_bytes32,t_struct(Election)55_storage)"
      },
      {
        "astId": 85,
        "contract": "contracts/AadhaarVoting.sol:AadhaarVoting",
        "label": "generalElectionIds",
        "offset": 0,
        "slot": "3",
        "type": "t_array(t_bytes32)dyn_storage"
      },
      {
        "astId": 88,
        "contract": "contracts/AadhaarVoting.sol:AadhaarVoting",
        "label": "stateElectionIds",
        "offset": 0,
        "slot": "4",
        "type": "t_array(t_bytes32)dyn_storage"
      }
    ],
    "types": {
      "t_address": {
        "encoding": "inplace",
        "label": "address",
        "numberOfBytes": "20"
      },
      "t_array(t_address)dyn_storage": {
        "base": "t_address",
        "encoding": "dynamic_array",
        "label": "address[]",
        "numberOfBytes": "32"
      },
      "t_array(t_bytes32)dyn_storage": {
        "base": "t_bytes32",
        "encoding": "dynamic_array",
        "label": "bytes32[]",
        "numberOfBytes": "32"
      },
      "t_bool": {
        "encoding": "inplace",
        "label": "bool",
        "numberOfBytes": "1"
      },
      "t_bytes32": {
        "encoding": "inplace",
        "label": "bytes32",
        "numberOfBytes": "32"
      },
      "t_mapping(t_address,t_bool)": {
        "encoding": "mapping",
        "key": "t_address",
        "label": "mapping(address => bool)",
        "numberOfBytes": "32",
        "value": "t_bool"
      },
      "t_mapping(t_address,t_uint256)": {
        "encoding": "mapping",
        "key": "t_address",
        "label": "mapping(address => uint256)",
        "numberOfBytes": "32",
        "value": "t_uint256"
      },
      "t_mapping(t_bytes32,t_struct(Election)55_storage)": {
        "encoding": "mapping",
        "key": "t_bytes32",
        "label": "mapping(bytes32 => struct AadhaarVoting.Election)",
        "numberOfBytes": "32",
        "value": "t_struct(Election)55_storage"
      },
      "t_string_storage": {
        "encoding": "bytes",
        "label": "string",
        "numberOfBytes": "32"
      },
      "t_struct(Election)55_storage": {
        "encoding": "inplace",
        "label": "struct AadhaarVoting.Election",
        "members": [
          {
            "astId": 29,
            "contract": "contracts/AadhaarVoting.sol:AadhaarVoting",
            "label": "name",
            "offset": 0,
            "slot": "0",
            "type": "t_string_storage"
          },
          {
            "astId": 31,
            "contract": "contracts/AadhaarVoting.sol:AadhaarVoting",
            "label": "state",
            "offset": 0,
            "slot": "1",
            "type": "t_string_storage"
          },
          {
            "astId": 33,
            "contract": "contracts/AadhaarVoting.sol:AadhaarVoting",
            "label": "startTime",
            "offset": 0,
            "slot": "2",
            "type": "t_uint256"
          },
          {
            "astId": 35,
            "contract": "contracts/AadhaarVoting.sol:AadhaarVoting",
            "label": "endTime",
            "offset": 0,
            "slot": "3",
            "type": "t_uint256"
          },
          {
            "astId": 37,
            "contract": "contracts/AadhaarVoting.sol:AadhaarVoting",
            "label": "year",
            "offset": 0,
            "slot": "4",
            "type": "t_uint256"
          },
          {
            "astId": 39,
            "contract": "contracts/AadhaarVoting.sol:AadhaarVoting",
            "label": "isActive",
            "offset": 0,
            "slot": "5",
            "type": "t_bool"
          },
          {
            "astId": 42,
            "contract": "contracts/AadhaarVoting.sol:AadhaarVoting",
            "label": "candidates",
            "offset": 0,
            "slot": "6",
            "type": "t_array(t_address)dyn_storage"
          },
          {
            "astId": 46,
            "contract": "contracts/AadhaarVoting.sol:AadhaarVoting",
            "label": "votes",
            "offset": 0,
            "slot": "7",
            "type": "t_mapping(t_address,t_uint256)"
          },
          {
            "astId": 50,
            "contract": "contracts/AadhaarVoting.sol:AadhaarVoting",
            "label": "hasVoted",
            "offset": 0,
            "slot": "8",
            "type": "t_mapping(t_address,t_bool)"
          },
          {
            "astId": 54,
            "contract": "contracts/AadhaarVoting.sol:AadhaarVoting",
            "label": "isValidCandidate",
            "offset": 0,
            "slot": "9",
            "type": "t_mapping(t_address,t_bool)"
          }
        ],
        "numberOfBytes": "320"
      },
      "t_uint256": {
        "encoding": "inplace",
        "label": "uint256",
        "numberOfBytes": "32"
      }
    }
  }
}